{
  "contractName": "Coinflip",
  "abi": [
    {
      "inputs": [],
      "payable": false,
      "stateMutability": "nonpayable",
      "type": "constructor"
    },
    {
      "anonymous": false,
      "inputs": [
        {
          "indexed": false,
          "internalType": "address",
          "name": "player",
          "type": "address"
        },
        {
          "indexed": false,
          "internalType": "uint256",
          "name": "result",
          "type": "uint256"
        }
      ],
      "name": "coinFlip",
      "type": "event"
    },
    {
      "anonymous": false,
      "inputs": [
        {
          "indexed": false,
          "internalType": "address",
          "name": "player",
          "type": "address"
        },
        {
          "indexed": false,
          "internalType": "uint256",
          "name": "value",
          "type": "uint256"
        }
      ],
      "name": "coinLost",
      "type": "event"
    },
    {
      "anonymous": false,
      "inputs": [
        {
          "indexed": false,
          "internalType": "address",
          "name": "player",
          "type": "address"
        },
        {
          "indexed": false,
          "internalType": "uint256",
          "name": "value",
          "type": "uint256"
        }
      ],
      "name": "coinWon",
      "type": "event"
    },
    {
      "anonymous": false,
      "inputs": [],
      "name": "proofInvalid",
      "type": "event"
    },
    {
      "anonymous": false,
      "inputs": [
        {
          "indexed": false,
          "internalType": "address",
          "name": "player",
          "type": "address"
        },
        {
          "indexed": false,
          "internalType": "uint256",
          "name": "value",
          "type": "uint256"
        }
      ],
      "name": "transferWin",
      "type": "event"
    },
    {
      "constant": true,
      "inputs": [],
      "name": "availableMoney",
      "outputs": [
        {
          "internalType": "uint256",
          "name": "",
          "type": "uint256"
        }
      ],
      "payable": false,
      "stateMutability": "view",
      "type": "function"
    },
    {
      "constant": true,
      "inputs": [
        {
          "internalType": "bytes32",
          "name": "",
          "type": "bytes32"
        }
      ],
      "name": "bets",
      "outputs": [
        {
          "internalType": "address",
          "name": "walletAddress",
          "type": "address"
        },
        {
          "internalType": "uint256",
          "name": "prediction",
          "type": "uint256"
        },
        {
          "internalType": "uint256",
          "name": "value",
          "type": "uint256"
        }
      ],
      "payable": false,
      "stateMutability": "view",
      "type": "function"
    },
    {
      "constant": true,
      "inputs": [],
      "name": "lockedMoney",
      "outputs": [
        {
          "internalType": "uint256",
          "name": "",
          "type": "uint256"
        }
      ],
      "payable": false,
      "stateMutability": "view",
      "type": "function"
    },
    {
      "constant": true,
      "inputs": [],
      "name": "owner",
      "outputs": [
        {
          "internalType": "address",
          "name": "",
          "type": "address"
        }
      ],
      "payable": false,
      "stateMutability": "view",
      "type": "function"
    },
    {
      "constant": true,
      "inputs": [
        {
          "internalType": "address",
          "name": "",
          "type": "address"
        }
      ],
      "name": "players",
      "outputs": [
        {
          "internalType": "uint256",
          "name": "winnings",
          "type": "uint256"
        },
        {
          "internalType": "bool",
          "name": "initialized",
          "type": "bool"
        }
      ],
      "payable": false,
      "stateMutability": "view",
      "type": "function"
    },
    {
      "constant": false,
      "inputs": [],
      "name": "addMoney",
      "outputs": [
        {
          "internalType": "uint256",
          "name": "",
          "type": "uint256"
        }
      ],
      "payable": true,
      "stateMutability": "payable",
      "type": "function"
    },
    {
      "constant": false,
      "inputs": [],
      "name": "withdrawMoney",
      "outputs": [
        {
          "internalType": "uint256",
          "name": "",
          "type": "uint256"
        }
      ],
      "payable": false,
      "stateMutability": "nonpayable",
      "type": "function"
    },
    {
      "constant": false,
      "inputs": [],
      "name": "transferWins",
      "outputs": [
        {
          "internalType": "uint256",
          "name": "",
          "type": "uint256"
        }
      ],
      "payable": false,
      "stateMutability": "nonpayable",
      "type": "function"
    },
    {
      "constant": false,
      "inputs": [
        {
          "internalType": "uint256",
          "name": "prediction",
          "type": "uint256"
        }
      ],
      "name": "placeBet",
      "outputs": [],
      "payable": true,
      "stateMutability": "payable",
      "type": "function"
    },
    {
      "constant": false,
      "inputs": [
        {
          "internalType": "bytes32",
          "name": "_myid",
          "type": "bytes32"
        },
        {
          "internalType": "string",
          "name": "_result",
          "type": "string"
        }
      ],
      "name": "__callback",
      "outputs": [],
      "payable": false,
      "stateMutability": "nonpayable",
      "type": "function"
    },
    {
      "constant": false,
      "inputs": [
        {
          "internalType": "bytes32",
          "name": "_queryId",
          "type": "bytes32"
        },
        {
          "internalType": "string",
          "name": "_result",
          "type": "string"
        },
        {
          "internalType": "bytes",
          "name": "_proof",
          "type": "bytes"
        }
      ],
      "name": "__callback",
      "outputs": [],
      "payable": false,
      "stateMutability": "nonpayable",
      "type": "function"
    }
  ],
  "bytecode": "0x60806040523480156200001157600080fd5b50336000806101000a81548173ffffffffffffffffffffffffffffffffffffffff021916908373ffffffffffffffffffffffffffffffffffffffff16021790555062000067603060f81b6200006d60201b60201c565b62000a91565b600073ffffffffffffffffffffffffffffffffffffffff16600260009054906101000a900473ffffffffffffffffffffffffffffffffffffffff1673ffffffffffffffffffffffffffffffffffffffff161480620000fd57506000620000fb600260009054906101000a900473ffffffffffffffffffffffffffffffffffffffff16620003d360201b60201c565b145b156200011757620001156000620003de60201b60201c565b505b600260009054906101000a900473ffffffffffffffffffffffffffffffffffffffff1673ffffffffffffffffffffffffffffffffffffffff166338cc48316040518163ffffffff1660e01b8152600401602060405180830381600087803b1580156200018257600080fd5b505af115801562000197573d6000803e3d6000fd5b505050506040513d6020811015620001ae57600080fd5b810190808051906020019092919050505073ffffffffffffffffffffffffffffffffffffffff16600160009054906101000a900473ffffffffffffffffffffffffffffffffffffffff1673ffffffffffffffffffffffffffffffffffffffff1614620002fd57600260009054906101000a900473ffffffffffffffffffffffffffffffffffffffff1673ffffffffffffffffffffffffffffffffffffffff166338cc48316040518163ffffffff1660e01b8152600401602060405180830381600087803b1580156200027f57600080fd5b505af115801562000294573d6000803e3d6000fd5b505050506040513d6020811015620002ab57600080fd5b8101908080519060200190929190505050600160006101000a81548173ffffffffffffffffffffffffffffffffffffffff021916908373ffffffffffffffffffffffffffffffffffffffff1602179055505b600160009054906101000a900473ffffffffffffffffffffffffffffffffffffffff1673ffffffffffffffffffffffffffffffffffffffff1663688dcfd7826040518263ffffffff1660e01b815260040180827effffffffffffffffffffffffffffffffffffffffffffffffffffffffffffff19167effffffffffffffffffffffffffffffffffffffffffffffffffffffffffffff19168152602001915050600060405180830381600087803b158015620003b757600080fd5b505af1158015620003cc573d6000803e3d6000fd5b5050505050565b6000813b9050919050565b6000620003f0620003f760201b60201c565b9050919050565b6000806200041f731d3b2638a7cc9f2cb3d298a3da7a90b67e5506ed620003d360201b60201c565b1115620004cb57731d3b2638a7cc9f2cb3d298a3da7a90b67e5506ed600260006101000a81548173ffffffffffffffffffffffffffffffffffffffff021916908373ffffffffffffffffffffffffffffffffffffffff160217905550620004c16040518060400160405280600b81526020017f6574685f6d61696e6e6574000000000000000000000000000000000000000000815250620009c660201b60201c565b60019050620009c3565b6000620004f273c03a2615d5efaf5f49f60b7bb6583eaec212fdf1620003d360201b60201c565b11156200059e5773c03a2615d5efaf5f49f60b7bb6583eaec212fdf1600260006101000a81548173ffffffffffffffffffffffffffffffffffffffff021916908373ffffffffffffffffffffffffffffffffffffffff160217905550620005946040518060400160405280600c81526020017f6574685f726f707374656e330000000000000000000000000000000000000000815250620009c660201b60201c565b60019050620009c3565b6000620005c573b7a07bcf2ba2f2703b24c0691b5278999c59ac7e620003d360201b60201c565b1115620006715773b7a07bcf2ba2f2703b24c0691b5278999c59ac7e600260006101000a81548173ffffffffffffffffffffffffffffffffffffffff021916908373ffffffffffffffffffffffffffffffffffffffff160217905550620006676040518060400160405280600981526020017f6574685f6b6f76616e0000000000000000000000000000000000000000000000815250620009c660201b60201c565b60019050620009c3565b60006200069873146500cfd35b22e4a392fe0adc06de1a1368ed48620003d360201b60201c565b1115620007445773146500cfd35b22e4a392fe0adc06de1a1368ed48600260006101000a81548173ffffffffffffffffffffffffffffffffffffffff021916908373ffffffffffffffffffffffffffffffffffffffff1602179055506200073a6040518060400160405280600b81526020017f6574685f72696e6b656279000000000000000000000000000000000000000000815250620009c660201b60201c565b60019050620009c3565b60006200076b73a2998efd205fb9d4b4963afb70778d6354ad3a41620003d360201b60201c565b1115620008175773a2998efd205fb9d4b4963afb70778d6354ad3a41600260006101000a81548173ffffffffffffffffffffffffffffffffffffffff021916908373ffffffffffffffffffffffffffffffffffffffff1602179055506200080d6040518060400160405280600a81526020017f6574685f676f65726c6900000000000000000000000000000000000000000000815250620009c660201b60201c565b60019050620009c3565b60006200083e736f485c8bf6fc43ea212e93bbf8ce046c7f1cb475620003d360201b60201c565b1115620008a457736f485c8bf6fc43ea212e93bbf8ce046c7f1cb475600260006101000a81548173ffffffffffffffffffffffffffffffffffffffff021916908373ffffffffffffffffffffffffffffffffffffffff16021790555060019050620009c3565b6000620008cb7320e12a1f859b3feae5fb2a0a32c18f5a65555bbf620003d360201b60201c565b111562000931577320e12a1f859b3feae5fb2a0a32c18f5a65555bbf600260006101000a81548173ffffffffffffffffffffffffffffffffffffffff021916908373ffffffffffffffffffffffffffffffffffffffff16021790555060019050620009c3565b6000620009587351efaf4c8b3c9afbd5ab9f4bbc82784ab6ef8faa620003d360201b60201c565b1115620009be577351efaf4c8b3c9afbd5ab9f4bbc82784ab6ef8faa600260006101000a81548173ffffffffffffffffffffffffffffffffffffffff021916908373ffffffffffffffffffffffffffffffffffffffff16021790555060019050620009c3565b600090505b90565b8060039080519060200190620009de929190620009e2565b5050565b828054600181600116156101000203166002900490600052602060002090601f016020900481019282601f1062000a2557805160ff191683800117855562000a56565b8280016001018555821562000a56579182015b8281111562000a5557825182559160200191906001019062000a38565b5b50905062000a65919062000a69565b5090565b62000a8e91905b8082111562000a8a57600081600090555060010162000a70565b5090565b90565b613ea78062000aa16000396000f3fe60806040526004361061009c5760003560e01c80638da5cb5b116100645780638da5cb5b14610353578063ac446002146103aa578063c5310de1146103d5578063c902c3ae14610400578063ccaedda614610489578063e2eb41ff146104b45761009c565b806310fe7c48146100a15780631b3f4842146100cf57806327dc297e146100ed57806338bbfa50146101bf5780635f80069d14610328575b600080fd5b6100cd600480360360208110156100b757600080fd5b8101908080359060200190929190505050610524565b005b6100d761074d565b6040518082815260200191505060405180910390f35b3480156100f957600080fd5b506101bd6004803603604081101561011057600080fd5b81019080803590602001909291908035906020019064010000000081111561013757600080fd5b82018360208201111561014957600080fd5b8035906020019184600183028401116401000000008311171561016b57600080fd5b91908080601f016020809104026020016040519081016040528093929190818152602001838380828437600081840152601f19601f820116905080830192505050505050509192919290505050610773565b005b3480156101cb57600080fd5b50610326600480360360608110156101e257600080fd5b81019080803590602001909291908035906020019064010000000081111561020957600080fd5b82018360208201111561021b57600080fd5b8035906020019184600183028401116401000000008311171561023d57600080fd5b91908080601f016020809104026020016040519081016040528093929190818152602001838380828437600081840152601f19601f820116905080830192505050505050509192919290803590602001906401000000008111156102a057600080fd5b8201836020820111156102b257600080fd5b803590602001918460018302840111640100000000831117156102d457600080fd5b91908080601f016020809104026020016040519081016040528093929190818152602001838380828437600081840152601f19601f8201169050808301925050505050505091929192905050506107b6565b005b34801561033457600080fd5b5061033d610c3f565b6040518082815260200191505060405180910390f35b34801561035f57600080fd5b50610368610c45565b604051808273ffffffffffffffffffffffffffffffffffffffff1673ffffffffffffffffffffffffffffffffffffffff16815260200191505060405180910390f35b3480156103b657600080fd5b506103bf610c6a565b6040518082815260200191505060405180910390f35b3480156103e157600080fd5b506103ea610cc8565b6040518082815260200191505060405180910390f35b34801561040c57600080fd5b506104396004803603602081101561042357600080fd5b8101908080359060200190929190505050610e70565b604051808473ffffffffffffffffffffffffffffffffffffffff1673ffffffffffffffffffffffffffffffffffffffff168152602001838152602001828152602001935050505060405180910390f35b34801561049557600080fd5b5061049e610eba565b6040518082815260200191505060405180910390f35b3480156104c057600080fd5b50610503600480360360208110156104d757600080fd5b81019080803573ffffffffffffffffffffffffffffffffffffffff169060200190929190505050610ec0565b60405180838152602001821515151581526020019250505060405180910390f35b80600034118015610541575060026006548161053c57fe5b043411155b61054a57600080fd5b60008114806105595750600181145b61056257600080fd5b60008090506000620927c09050600061057d83600184610ef1565b9050610587613cf9565b60405180606001604052803373ffffffffffffffffffffffffffffffffffffffff168152602001878152602001348152509050806009600084815260200190815260200160002060008201518160000160006101000a81548173ffffffffffffffffffffffffffffffffffffffff021916908373ffffffffffffffffffffffffffffffffffffffff1602179055506020820151816001015560408201518160020155905050346006600082825403925050819055508260066000828254039250508190555060023402600760008282540192505081905550600860003373ffffffffffffffffffffffffffffffffffffffff1673ffffffffffffffffffffffffffffffffffffffff16815260200190815260200160002060010160009054906101000a900460ff16610745576106bb613d30565b60405180604001604052806000815260200160011515815250905080600860003373ffffffffffffffffffffffffffffffffffffffff1673ffffffffffffffffffffffffffffffffffffffff1681526020019081526020016000206000820151816000015560208201518160010160006101000a81548160ff021916908315150217905550905050505b505050505050565b600080341161075b57600080fd5b34600660008282540192505081905550600654905090565b6107b2828260006040519080825280601f01601f1916602001820160405280156107ac5781602001600182028038833980820191505090505b506107b6565b5050565b6107be61148c565b73ffffffffffffffffffffffffffffffffffffffff163373ffffffffffffffffffffffffffffffffffffffff16146107f557600080fd5b60006108028484846117ac565b60ff16905060008114610840577faf281b86397efb34434a01069d8f26a316a338144dd027c86dfa564f78258dbd60405160405180910390a1610c39565b60006002846040516020018082805190602001908083835b6020831061087b5780518252602082019150602081019050602083039250610858565b6001836020036101000a0380198251168184511680821785525050505050509050019150506040516020818303038152906040528051906020012060001c816108c057fe5b0690507fb16e22ae4af6d06489a9ee63ead3be1a63aa92663a4f252a54188aa66cedbf906009600087815260200190815260200160002060000160009054906101000a900473ffffffffffffffffffffffffffffffffffffffff1682604051808373ffffffffffffffffffffffffffffffffffffffff1673ffffffffffffffffffffffffffffffffffffffff1681526020018281526020019250505060405180910390a18060096000878152602001908152602001600020600101541415610ae0577f18fefa7cb13684152e64f03bf25716a36483d2ccf358884e238ed1f46369c91d6009600087815260200190815260200160002060000160009054906101000a900473ffffffffffffffffffffffffffffffffffffffff166002600960008981526020019081526020016000206002015402604051808373ffffffffffffffffffffffffffffffffffffffff1673ffffffffffffffffffffffffffffffffffffffff1681526020018281526020019250505060405180910390a16002600960008781526020019081526020016000206002015402600860006009600089815260200190815260200160002060000160009054906101000a900473ffffffffffffffffffffffffffffffffffffffff1673ffffffffffffffffffffffffffffffffffffffff1673ffffffffffffffffffffffffffffffffffffffff16815260200190815260200160002060000160008282540192505081905550610bea565b7f86210bb20c4b503d8bc931a507b424cc18f04fc25b562d640b8472bfdfa2d8fc6009600087815260200190815260200160002060000160009054906101000a900473ffffffffffffffffffffffffffffffffffffffff166009600088815260200190815260200160002060020154604051808373ffffffffffffffffffffffffffffffffffffffff1673ffffffffffffffffffffffffffffffffffffffff1681526020018281526020019250505060405180910390a1600260096000878152602001908152602001600020600201540260066000828254019250508190555060026009600087815260200190815260200160002060020154026007600082825403925050819055505b60096000868152602001908152602001600020600080820160006101000a81549073ffffffffffffffffffffffffffffffffffffffff0219169055600182016000905560028201600090555050505b50505050565b60075481565b6000809054906101000a900473ffffffffffffffffffffffffffffffffffffffff1681565b600080600654905060006006819055503373ffffffffffffffffffffffffffffffffffffffff166108fc829081150290604051600060405180830381858888f19350505050158015610cc0573d6000803e3d6000fd5b508091505090565b600080600860003373ffffffffffffffffffffffffffffffffffffffff1673ffffffffffffffffffffffffffffffffffffffff1681526020019081526020016000206000015411610d1857600080fd5b6000600860003373ffffffffffffffffffffffffffffffffffffffff1673ffffffffffffffffffffffffffffffffffffffff168152602001908152602001600020600001549050806007600082825403925050819055506000600860003373ffffffffffffffffffffffffffffffffffffffff1673ffffffffffffffffffffffffffffffffffffffff168152602001908152602001600020600001819055503373ffffffffffffffffffffffffffffffffffffffff166108fc829081150290604051600060405180830381858888f19350505050158015610dfd573d6000803e3d6000fd5b507f131265de570b6b52a15d08c2bfdbd157034f6b92df12f9b7fa1c83834b84263b3382604051808373ffffffffffffffffffffffffffffffffffffffff1673ffffffffffffffffffffffffffffffffffffffff1681526020018281526020019250505060405180910390a18091505090565b60096020528060005260406000206000915090508060000160009054906101000a900473ffffffffffffffffffffffffffffffffffffffff16908060010154908060020154905083565b60065481565b60086020528060005260406000206000915090508060000154908060010160009054906101000a900460ff16905082565b60008083118015610f03575060208311155b610f0c57600080fd5b600a84029350606060016040519080825280601f01601f191660200182016040528015610f485781602001600182028038833980820191505090505b5090508360f81b81600081518110610f5c57fe5b60200101907effffffffffffffffffffffffffffffffffffffffffffffffffffffffffffff1916908160001a905350606060206040519080825280601f01601f191660200182016040528015610fc15781602001600182028038833980820191505090505b509050606060206040519080825280601f01601f191660200182016040528015610ffa5781602001600182028038833980820191505090505b50905060006110076118dc565b905060208352424118600143034018602084015260208252806020830152606060206040519080825280601f01601f19166020018201604052801561105b5781602001600182028038833980820191505090505b509050886020820152606060086040519080825280601f01601f19166020018201604052801561109a5781602001600182028038833980820191505090505b5090506110ad8260186008846000611bfc565b506110b6613d4c565b6040518060800160405280878152602001888152602001868152602001848152509050600061111b6040518060400160405280600681526020017f72616e646f6d0000000000000000000000000000000000000000000000000000815250838c611c5b565b9050606060086040519080825280601f01601f1916602001820160405280156111535781602001600182028038833980820191505090505b50905060208401517f0100000000000000000000000000000000000000000000000000000000000000810460278301537e01000000000000000000000000000000000000000000000000000000000000810460268301537d010000000000000000000000000000000000000000000000000000000000810460258301537c0100000000000000000000000000000000000000000000000000000000810460248301537b01000000000000000000000000000000000000000000000000000000810460238301537a01000000000000000000000000000000000000000000000000000081046022830153790100000000000000000000000000000000000000000000000000810460218301537801000000000000000000000000000000000000000000000000810460208301535061147982828560016004811061129257fe5b60200201516002876000600481106112a657fe5b60200201516040518082805190602001908083835b602083106112de57805182526020820191506020810190506020830392506112bb565b6001836020036101000a038019825116818451168082178552505050505050905001915050602060405180830381855afa158015611320573d6000803e3d6000fd5b5050506040513d602081101561133557600080fd5b81019080805190602001909291905050508760026004811061135357fe5b60200201516040516020018085805190602001908083835b6020831061138e578051825260208201915060208101905060208303925061136b565b6001836020036101000a03801982511681845116808217855250505050505090500184805190602001908083835b602083106113df57805182526020820191506020810190506020830392506113bc565b6001836020036101000a03801982511681845116808217855250505050505090500183815260200182805190602001908083835b602083106114365780518252602082019150602081019050602083039250611413565b6001836020036101000a03801982511681845116808217855250505050505090500194505050505060405160208183030381529060405280519060200120611fca565b8199505050505050505050509392505050565b60008073ffffffffffffffffffffffffffffffffffffffff16600260009054906101000a900473ffffffffffffffffffffffffffffffffffffffff1673ffffffffffffffffffffffffffffffffffffffff16148061151457506000611512600260009054906101000a900473ffffffffffffffffffffffffffffffffffffffff16611fe6565b145b15611525576115236000611ff1565b505b600260009054906101000a900473ffffffffffffffffffffffffffffffffffffffff1673ffffffffffffffffffffffffffffffffffffffff166338cc48316040518163ffffffff1660e01b8152600401602060405180830381600087803b15801561158f57600080fd5b505af11580156115a3573d6000803e3d6000fd5b505050506040513d60208110156115b957600080fd5b810190808051906020019092919050505073ffffffffffffffffffffffffffffffffffffffff16600160009054906101000a900473ffffffffffffffffffffffffffffffffffffffff1673ffffffffffffffffffffffffffffffffffffffff161461170457600260009054906101000a900473ffffffffffffffffffffffffffffffffffffffff1673ffffffffffffffffffffffffffffffffffffffff166338cc48316040518163ffffffff1660e01b8152600401602060405180830381600087803b15801561168857600080fd5b505af115801561169c573d6000803e3d6000fd5b505050506040513d60208110156116b257600080fd5b8101908080519060200190929190505050600160006101000a81548173ffffffffffffffffffffffffffffffffffffffff021916908373ffffffffffffffffffffffffffffffffffffffff1602179055505b600160009054906101000a900473ffffffffffffffffffffffffffffffffffffffff1673ffffffffffffffffffffffffffffffffffffffff1663c281d19e6040518163ffffffff1660e01b815260040160206040518083038186803b15801561176c57600080fd5b505afa158015611780573d6000803e3d6000fd5b505050506040513d602081101561179657600080fd5b8101908080519060200190929190505050905090565b60007f4c00000000000000000000000000000000000000000000000000000000000000826000815181106117dc57fe5b602001015160f81c60f81b7effffffffffffffffffffffffffffffffffffffffffffffffffffffffffffff191614158061186f57507f50000000000000000000000000000000000000000000000000000000000000008260018151811061183f57fe5b602001015160f81c60f81b7effffffffffffffffffffffffffffffffffffffffffffffffffffffffffffff191614155b8061189b5750600160ff168260028151811061188757fe5b602001015160f81c60f81b60f81c60ff1614155b156118a957600190506118d5565b60006118be8386866118b9612002565b6120a4565b9050806118cf5760029150506118d5565b60009150505b9392505050565b60008073ffffffffffffffffffffffffffffffffffffffff16600260009054906101000a900473ffffffffffffffffffffffffffffffffffffffff1673ffffffffffffffffffffffffffffffffffffffff16148061196457506000611962600260009054906101000a900473ffffffffffffffffffffffffffffffffffffffff16611fe6565b145b15611975576119736000611ff1565b505b600260009054906101000a900473ffffffffffffffffffffffffffffffffffffffff1673ffffffffffffffffffffffffffffffffffffffff166338cc48316040518163ffffffff1660e01b8152600401602060405180830381600087803b1580156119df57600080fd5b505af11580156119f3573d6000803e3d6000fd5b505050506040513d6020811015611a0957600080fd5b810190808051906020019092919050505073ffffffffffffffffffffffffffffffffffffffff16600160009054906101000a900473ffffffffffffffffffffffffffffffffffffffff1673ffffffffffffffffffffffffffffffffffffffff1614611b5457600260009054906101000a900473ffffffffffffffffffffffffffffffffffffffff1673ffffffffffffffffffffffffffffffffffffffff166338cc48316040518163ffffffff1660e01b8152600401602060405180830381600087803b158015611ad857600080fd5b505af1158015611aec573d6000803e3d6000fd5b505050506040513d6020811015611b0257600080fd5b8101908080519060200190929190505050600160006101000a81548173ffffffffffffffffffffffffffffffffffffffff021916908373ffffffffffffffffffffffffffffffffffffffff1602179055505b600160009054906101000a900473ffffffffffffffffffffffffffffffffffffffff1673ffffffffffffffffffffffffffffffffffffffff1663abaa5f3e6040518163ffffffff1660e01b815260040160206040518083038186803b158015611bbc57600080fd5b505afa158015611bd0573d6000803e3d6000fd5b505050506040513d6020811015611be657600080fd5b8101908080519060200190929190505050905090565b6060600082850190508084511015611c1357600080fd5b600086602001905060008460200190505b868860200101821015611c4c5781890151808288015250602082019150602081019050611c24565b85935050505095945050505050565b60008073ffffffffffffffffffffffffffffffffffffffff16600260009054906101000a900473ffffffffffffffffffffffffffffffffffffffff1673ffffffffffffffffffffffffffffffffffffffff161480611ce357506000611ce1600260009054906101000a900473ffffffffffffffffffffffffffffffffffffffff16611fe6565b145b15611cf457611cf26000611ff1565b505b600260009054906101000a900473ffffffffffffffffffffffffffffffffffffffff1673ffffffffffffffffffffffffffffffffffffffff166338cc48316040518163ffffffff1660e01b8152600401602060405180830381600087803b158015611d5e57600080fd5b505af1158015611d72573d6000803e3d6000fd5b505050506040513d6020811015611d8857600080fd5b810190808051906020019092919050505073ffffffffffffffffffffffffffffffffffffffff16600160009054906101000a900473ffffffffffffffffffffffffffffffffffffffff1673ffffffffffffffffffffffffffffffffffffffff1614611ed357600260009054906101000a900473ffffffffffffffffffffffffffffffffffffffff1673ffffffffffffffffffffffffffffffffffffffff166338cc48316040518163ffffffff1660e01b8152600401602060405180830381600087803b158015611e5757600080fd5b505af1158015611e6b573d6000803e3d6000fd5b505050506040513d6020811015611e8157600080fd5b8101908080519060200190929190505050600160006101000a81548173ffffffffffffffffffffffffffffffffffffffff021916908373ffffffffffffffffffffffffffffffffffffffff1602179055505b60606004604051908082528060200260200182016040528015611f0a57816020015b6060815260200190600190039081611ef55790505b50905083600060048110611f1a57fe5b602002015181600081518110611f2c57fe5b602002602001018190525083600160048110611f4457fe5b602002015181600181518110611f5657fe5b602002602001018190525083600260048110611f6e57fe5b602002015181600281518110611f8057fe5b602002602001018190525083600360048110611f9857fe5b602002015181600381518110611faa57fe5b6020026020010181905250611fc085828561274f565b9150509392505050565b8060046000848152602001908152602001600020819055505050565b6000813b9050919050565b6000611ffb612cb5565b9050919050565b606060038054600181600116156101000203166002900480601f01602080910402602001604051908101604052809291908181526020018280546001816001161561010002031660029004801561209a5780601f1061206f5761010080835404028352916020019161209a565b820191906000526020600020905b81548152906001019060200180831161207d57829003601f168201915b5050505050905090565b60008060206002876045815181106120b857fe5b602001015160f81c60f81b60f81c60ff1601604401019050606060206040519080825280601f01601f1916602001820160405280156121065781602001600182028038833980820191505090505b50905061211887836020846000611bfc565b50600284876040516020018083805190602001908083835b602083106121535780518252602082019150602081019050602083039250612130565b6001836020036101000a038019825116818451168082178552505050505050905001828152602001925050506040516020818303038152906040526040518082805190602001908083835b602083106121c1578051825260208201915060208101905060208303925061219e565b6001836020036101000a038019825116818451168082178552505050505050905001915050602060405180830381855afa158015612203573d6000803e3d6000fd5b5050506040513d602081101561221857600080fd5b8101908080519060200190929190505050604051602001808281526020019150506040516020818303038152906040528051906020012081805190602001201461226757600092505050612747565b6060600288600160498601018151811061227d57fe5b602001015160f81c60f81b60f81c60ff16016040519080825280601f01601f1916602001820160405280156122c15781602001600182028038833980820191505090505b5090506122d688604985018351846000611bfc565b506123a16002826040518082805190602001908083835b6020831061231057805182526020820191506020810190506020830392506122ed565b6001836020036101000a038019825116818451168082178552505050505050905001915050602060405180830381855afa158015612352573d6000803e3d6000fd5b5050506040513d602081101561236757600080fd5b8101908080519060200190929190505050878a600860208801018151811061238b57fe5b602001015160f81c60f81b60f81c60ff1661320c565b6123b15760009350505050612747565b606060296040519080825280601f01601f1916602001820160405280156123e75781602001600182028038833980820191505090505b5090506123fc89602086016029846000611bfc565b506060604080519080825280601f01601f1916602001820160405280156124325781602001600182028038833980820191505090505b50905060006041845160296020890101010190506124588b604083036040856000611bfc565b5060006002836040518082805190602001908083835b60208310612491578051825260208201915060208101905060208303925061246e565b6001836020036101000a038019825116818451168082178552505050505050905001915050602060405180830381855afa1580156124d3573d6000803e3d6000fd5b5050506040513d60208110156124e857600080fd5b8101908080519060200190929190505050905083816040516020018083805190602001908083835b602083106125335780518252602082019150602081019050602083039250612510565b6001836020036101000a0380198251168184511680821785525050505050509050018281526020019250505060405160208183030381529060405280519060200120600460008d81526020019081526020016000205414156125ab57600460008c8152602001908152602001600020600090556125bb565b6000975050505050505050612747565b606060496040519080825280601f01601f1916602001820160405280156125f15781602001600182028038833980820191505090505b5090506126038d896049846000611bfc565b506126ac6002826040518082805190602001908083835b6020831061263d578051825260208201915060208101905060208303925061261a565b6001836020036101000a038019825116818451168082178552505050505050905001915050602060405180830381855afa15801561267f573d6000803e3d6000fd5b5050506040513d602081101561269457600080fd5b810190808051906020019092919050505087866132bc565b6126c157600098505050505050505050612747565b6005600083815260200190815260200160002060009054906101000a900460ff1661271b576126f08d8461347a565b6005600084815260200190815260200160002060006101000a81548160ff0219169083151502179055505b6005600083815260200190815260200160002060009054906101000a900460ff16985050505050505050505b949350505050565b60008073ffffffffffffffffffffffffffffffffffffffff16600260009054906101000a900473ffffffffffffffffffffffffffffffffffffffff1673ffffffffffffffffffffffffffffffffffffffff1614806127d7575060006127d5600260009054906101000a900473ffffffffffffffffffffffffffffffffffffffff16611fe6565b145b156127e8576127e66000611ff1565b505b600260009054906101000a900473ffffffffffffffffffffffffffffffffffffffff1673ffffffffffffffffffffffffffffffffffffffff166338cc48316040518163ffffffff1660e01b8152600401602060405180830381600087803b15801561285257600080fd5b505af1158015612866573d6000803e3d6000fd5b505050506040513d602081101561287c57600080fd5b810190808051906020019092919050505073ffffffffffffffffffffffffffffffffffffffff16600160009054906101000a900473ffffffffffffffffffffffffffffffffffffffff1673ffffffffffffffffffffffffffffffffffffffff16146129c757600260009054906101000a900473ffffffffffffffffffffffffffffffffffffffff1673ffffffffffffffffffffffffffffffffffffffff166338cc48316040518163ffffffff1660e01b8152600401602060405180830381600087803b15801561294b57600080fd5b505af115801561295f573d6000803e3d6000fd5b505050506040513d602081101561297557600080fd5b8101908080519060200190929190505050600160006101000a81548173ffffffffffffffffffffffffffffffffffffffff021916908373ffffffffffffffffffffffffffffffffffffffff1602179055505b6000600160009054906101000a900473ffffffffffffffffffffffffffffffffffffffff1673ffffffffffffffffffffffffffffffffffffffff16632ef3accc86856040518363ffffffff1660e01b81526004018080602001838152602001828103825284818151815260200191508051906020019080838360005b83811015612a5e578082015181840152602081019050612a43565b50505050905090810190601f168015612a8b5780820380516001836020036101000a031916815260200191505b509350505050602060405180830381600087803b158015612aab57600080fd5b505af1158015612abf573d6000803e3d6000fd5b505050506040513d6020811015612ad557600080fd5b81019080805190602001909291905050509050823a02670de0b6b3a764000001811115612b08576000801b915050612cae565b6060612b1385613892565b9050600160009054906101000a900473ffffffffffffffffffffffffffffffffffffffff1673ffffffffffffffffffffffffffffffffffffffff1663c55c1cb68360008985896040518663ffffffff1660e01b8152600401808581526020018060200180602001848152602001838103835286818151815260200191508051906020019080838360005b83811015612bb8578082015181840152602081019050612b9d565b50505050905090810190601f168015612be55780820380516001836020036101000a031916815260200191505b50838103825285818151815260200191508051906020019080838360005b83811015612c1e578082015181840152602081019050612c03565b50505050905090810190601f168015612c4b5780820380516001836020036101000a031916815260200191505b5096505050505050506020604051808303818588803b158015612c6d57600080fd5b505af1158015612c81573d6000803e3d6000fd5b50505050506040513d6020811015612c9857600080fd5b8101908080519060200190929190505050925050505b9392505050565b600080612cd5731d3b2638a7cc9f2cb3d298a3da7a90b67e5506ed611fe6565b1115612d7757731d3b2638a7cc9f2cb3d298a3da7a90b67e5506ed600260006101000a81548173ffffffffffffffffffffffffffffffffffffffff021916908373ffffffffffffffffffffffffffffffffffffffff160217905550612d6e6040518060400160405280600b81526020017f6574685f6d61696e6e6574000000000000000000000000000000000000000000815250613912565b60019050613209565b6000612d9673c03a2615d5efaf5f49f60b7bb6583eaec212fdf1611fe6565b1115612e385773c03a2615d5efaf5f49f60b7bb6583eaec212fdf1600260006101000a81548173ffffffffffffffffffffffffffffffffffffffff021916908373ffffffffffffffffffffffffffffffffffffffff160217905550612e2f6040518060400160405280600c81526020017f6574685f726f707374656e330000000000000000000000000000000000000000815250613912565b60019050613209565b6000612e5773b7a07bcf2ba2f2703b24c0691b5278999c59ac7e611fe6565b1115612ef95773b7a07bcf2ba2f2703b24c0691b5278999c59ac7e600260006101000a81548173ffffffffffffffffffffffffffffffffffffffff021916908373ffffffffffffffffffffffffffffffffffffffff160217905550612ef06040518060400160405280600981526020017f6574685f6b6f76616e0000000000000000000000000000000000000000000000815250613912565b60019050613209565b6000612f1873146500cfd35b22e4a392fe0adc06de1a1368ed48611fe6565b1115612fba5773146500cfd35b22e4a392fe0adc06de1a1368ed48600260006101000a81548173ffffffffffffffffffffffffffffffffffffffff021916908373ffffffffffffffffffffffffffffffffffffffff160217905550612fb16040518060400160405280600b81526020017f6574685f72696e6b656279000000000000000000000000000000000000000000815250613912565b60019050613209565b6000612fd973a2998efd205fb9d4b4963afb70778d6354ad3a41611fe6565b111561307b5773a2998efd205fb9d4b4963afb70778d6354ad3a41600260006101000a81548173ffffffffffffffffffffffffffffffffffffffff021916908373ffffffffffffffffffffffffffffffffffffffff1602179055506130726040518060400160405280600a81526020017f6574685f676f65726c6900000000000000000000000000000000000000000000815250613912565b60019050613209565b600061309a736f485c8bf6fc43ea212e93bbf8ce046c7f1cb475611fe6565b11156130fe57736f485c8bf6fc43ea212e93bbf8ce046c7f1cb475600260006101000a81548173ffffffffffffffffffffffffffffffffffffffff021916908373ffffffffffffffffffffffffffffffffffffffff16021790555060019050613209565b600061311d7320e12a1f859b3feae5fb2a0a32c18f5a65555bbf611fe6565b1115613181577320e12a1f859b3feae5fb2a0a32c18f5a65555bbf600260006101000a81548173ffffffffffffffffffffffffffffffffffffffff021916908373ffffffffffffffffffffffffffffffffffffffff16021790555060019050613209565b60006131a07351efaf4c8b3c9afbd5ab9f4bbc82784ab6ef8faa611fe6565b1115613204577351efaf4c8b3c9afbd5ab9f4bbc82784ab6ef8faa600260006101000a81548173ffffffffffffffffffffffffffffffffffffffff021916908373ffffffffffffffffffffffffffffffffffffffff16021790555060019050613209565b600090505b90565b600080600190508284511461322057600080fd5b60008090505b838110156132b05784818151811061323a57fe5b602001015160f81c60f81b7effffffffffffffffffffffffffffffffffffffffffffffffffffffffffffff191686826020811061327357fe5b1a60f81b7effffffffffffffffffffffffffffffffffffffffffffffffffffffffffffff1916146132a357600091505b8080600101915050613226565b50809150509392505050565b6000806000806000606060206040519080825280601f01601f1916602001820160405280156132fa5781602001600182028038833980820191505090505b509050600060208960038151811061330e57fe5b602001015160f81c60f81b60f81c60ff1603600401905061333489826020856000611bfc565b9150606060206040519080825280601f01601f19166020018201604052801561336c5781602001600182028038833980820191505090505b5090506022820191506133a88a60208c600186038151811061338a57fe5b602001015160f81c60f81b60f81c60ff160384016020846000611bfc565b905060208301519450602081015193506133c58b601b878761392c565b80975081985050508573ffffffffffffffffffffffffffffffffffffffff16898051906020012060001c73ffffffffffffffffffffffffffffffffffffffff16141561341b576001975050505050505050613473565b6134288b601c878761392c565b80975081985050508573ffffffffffffffffffffffffffffffffffffffff16898051906020012060001c73ffffffffffffffffffffffffffffffffffffffff16149750505050505050505b9392505050565b6000806060600285600186018151811061349057fe5b602001015160f81c60f81b60f81c60ff16016040519080825280601f01601f1916602001820160405280156134d45781602001600182028038833980820191505090505b5090506134e685858351846000611bfc565b506060604080519080825280601f01601f19166020018201604052801561351c5781602001600182028038833980820191505090505b50905061352f8660046040846000611bfc565b50606060626040519080825280601f01601f1916602001820160405280156135665781602001600182028038833980820191505090505b509050600160f81b8160008151811061357b57fe5b60200101907effffffffffffffffffffffffffffffffffffffffffffffffffffffffffffff1916908160001a9053506135bc87604188036041846001611bfc565b5060606040518060400160405280602081526020017ffd94fa71bc0ba10d39d464d0d8f465efeef0a2764e3887fcc9df41ded20f505c81525090506136078160006020856042611bfc565b506136b06002836040518082805190602001908083835b60208310613641578051825260208201915060208101905060208303925061361e565b6001836020036101000a038019825116818451168082178552505050505050905001915050602060405180830381855afa158015613683573d6000803e3d6000fd5b5050506040513d602081101561369857600080fd5b810190808051906020019092919050505085856132bc565b9450846136c55760009550505050505061388c565b6060604051806060016040528060408152602001613e33604091399050606060426040519080825280601f01601f1916602001820160405280156137185781602001600182028038833980820191505090505b50905060fe60f81b8160008151811061372d57fe5b60200101907effffffffffffffffffffffffffffffffffffffffffffffffffffffffffffff1916908160001a90535061376c8a60036041846001611bfc565b50606060028b60458151811061377e57fe5b602001015160f81c60f81b60f81c60ff16016040519080825280601f01601f1916602001820160405280156137c25781602001600182028038833980820191505090505b5090506137d58b60448351846000611bfc565b5061387e6002836040518082805190602001908083835b6020831061380f57805182526020820191506020810190506020830392506137ec565b6001836020036101000a038019825116818451168082178552505050505050905001915050602060405180830381855afa158015613851573d6000803e3d6000fd5b5050506040513d602081101561386657600080fd5b810190808051906020019092919050505082856132bc565b975087985050505050505050505b92915050565b606061389c613970565b6138a4613d73565b6138b08161040061397c565b6138b9816139c6565b60008090505b83518110156138fb576138ee8482815181106138d757fe5b6020026020010151836139d490919063ffffffff16565b80806001019150506138bf565b50613905816139f9565b8060000151915050919050565b8060039080519060200190613928929190613d8d565b5050565b60008060008060405188815287602082015286604082015285606082015260208160808360006001610bb8f192508051915050818193509350505094509492505050565b60405180590338823950565b600081905060006020828161398d57fe5b06146139a6576020818161399d57fe5b06602003810190505b808360200181815250506040518084526000815281810160405250505050565b6139d1816004613a07565b50565b6139e18260028351613a28565b6139f48183613b6890919063ffffffff16565b505050565b613a04816007613a07565b50565b613a24601f60058360ff16901b1783613c1390919063ffffffff16565b5050565b60178111613a5457613a4f8160058460ff16901b60ff161784613c1390919063ffffffff16565b613b63565b60ff8111613a9557613a79601860058460ff16901b1784613c1390919063ffffffff16565b613a8f81600185613c539092919063ffffffff16565b50613b62565b61ffff8111613ad757613abb601960058460ff16901b1784613c1390919063ffffffff16565b613ad181600285613c539092919063ffffffff16565b50613b61565b63ffffffff8111613b1b57613aff601a60058460ff16901b1784613c1390919063ffffffff16565b613b1581600485613c539092919063ffffffff16565b50613b60565b67ffffffffffffffff8111613b5f57613b47601b60058460ff16901b1784613c1390919063ffffffff16565b613b5d81600885613c539092919063ffffffff16565b505b5b5b5b5b505050565b613b70613d73565b82602001518360000151518351011115613ba057613b9f836002613b9986602001518651613cba565b02613cd6565b5b60008060008451905085518051602081830101945086518101825260208701935050505b60208110613be75781518352602083019250602082019150602081039050613bc4565b60006001826020036101000a039050801983511681855116818117865250508694505050505092915050565b81602001516001836000015151011115613c3957613c38826002846020015102613cd6565b5b815180516020818301018381536001820183525050505050565b613c5b613d73565b836020015184600001515183011115613c8957613c88846002613c82876020015186613cba565b02613cd6565b5b60006001836101000a0390508451805184818301018684198251161781528582018352505050849150509392505050565b600081831115613ccc57829050613cd0565b8190505b92915050565b606082600001519050613ce9838361397c565b613cf38382613b68565b50505050565b6040518060600160405280600073ffffffffffffffffffffffffffffffffffffffff16815260200160008152602001600081525090565b6040518060400160405280600081526020016000151581525090565b60405180608001604052806004905b6060815260200190600190039081613d5b5790505090565b604051806040016040528060608152602001600081525090565b828054600181600116156101000203166002900490600052602060002090601f016020900481019282601f10613dce57805160ff1916838001178555613dfc565b82800160010185558215613dfc579182015b82811115613dfb578251825591602001919060010190613de0565b5b509050613e099190613e0d565b5090565b613e2f91905b80821115613e2b576000816000905550600101613e13565b5090565b9056fe7fb956469c5c9b89840d55b43537e66a98dd4811ea0a27224272c2e5622911e8537a2f8e86a46baec82864e98dd01e9ccc2f8bc5dfc9cbe5a91a290498dd96e4a265627a7a723158204e5766986e0aa21b6a46b3fd26ba2e5fe4bbd4b62ce8bf450391376c451ff91c64736f6c634300050c0032",
  "source": "import \"./Ownable.sol\";\r\nimport \"./ProvableAPI.sol\";\r\npragma solidity 0.5.12;\r\n\r\ncontract Coinflip is Ownable, usingProvable {\r\n\r\n  uint public availableMoney;\r\n  uint public lockedMoney;\r\n  uint256 constant NUM_RANDOM_BYTES_REQUESTED = 1;\r\n\r\n  event coinFlip(address player, uint result);\r\n  event coinWon(address player, uint value);\r\n  event coinLost(address player, uint value);\r\n  event transferWin(address player, uint value);\r\n  event proofInvalid();\r\n\r\n  struct Player {\r\n        uint winnings;\r\n        bool initialized;\r\n    }\r\n\r\n    struct Bet {\r\n        address walletAddress;\r\n        uint prediction;\r\n        uint value;\r\n    }\r\n\r\n    mapping(address => Player) public players;\r\n    mapping(bytes32 => Bet) public bets;\r\n\r\n    modifier checkFlip(uint prediction){\r\n       require(msg.value > 0 && msg.value <= (availableMoney / 2));\r\n       require(prediction == 0 || prediction == 1);\r\n       _;\r\n   }\r\n\r\n   constructor()\r\n        public\r\n    {\r\n        provable_setProof(proofType_Ledger);\r\n    }\r\n\r\n    function addMoney() public payable returns(uint) {\r\n        require(msg.value > 0);\r\n        availableMoney += msg.value;\r\n        return availableMoney;\r\n    }\r\n\r\n    function withdrawMoney() public returns(uint) {\r\n       uint toTransfer = availableMoney;\r\n       availableMoney = 0;\r\n       msg.sender.transfer(toTransfer);\r\n       return toTransfer;\r\n   }\r\n\r\n   function transferWins() public returns(uint) {\r\n        require(players[msg.sender].winnings > 0);\r\n\r\n        uint toTransfer = players[msg.sender].winnings;\r\n        lockedMoney -= toTransfer;\r\n        players[msg.sender].winnings = 0;\r\n        msg.sender.transfer(toTransfer);\r\n        emit transferWin(msg.sender, toTransfer);\r\n        return toTransfer;\r\n    }\r\n\r\n    function placeBet(uint prediction) public payable checkFlip(prediction) {\r\n        uint256 QUERY_EXECUTION_DELAY = 0;\r\n        uint GAS_FOR_CALLBACK = 600000;\r\n        bytes32 queryId = provable_newRandomDSQuery(\r\n            QUERY_EXECUTION_DELAY,\r\n            NUM_RANDOM_BYTES_REQUESTED,\r\n            GAS_FOR_CALLBACK\r\n        );\r\n\r\n\r\n        Bet memory newBet = Bet(msg.sender, prediction, msg.value);\r\n        bets[queryId] = newBet;\r\n        availableMoney -= msg.value;\r\n        availableMoney -= GAS_FOR_CALLBACK;\r\n        lockedMoney += msg.value * 2;\r\n\r\n        if(!players[msg.sender].initialized){\r\n            Player memory newPlayer = Player(0, true);\r\n            players[msg.sender] = newPlayer;\r\n        }\r\n    }\r\n\r\n    function __callback(bytes32 _queryId, string memory _result, bytes memory _proof) public {\r\n\r\n        require(msg.sender == provable_cbAddress());\r\n        uint _returnCode = provable_randomDS_proofVerify__returnCode(_queryId, _result, _proof);\r\n\r\n        if (_returnCode != 0) {\r\n            emit proofInvalid();\r\n        } else {\r\n            uint flip = uint256(keccak256(abi.encodePacked(_result))) % 2;\r\n            emit coinFlip(bets[_queryId].walletAddress, flip);\r\n\r\n            //To settle the bet by  adjusting the player's winnings or contract balances\r\n            if(bets[_queryId].prediction == flip) {\r\n                emit coinWon(bets[_queryId].walletAddress, bets[_queryId].value * 2);\r\n                players[bets[_queryId].walletAddress].winnings += bets[_queryId].value * 2;\r\n\r\n            } else {\r\n                emit coinLost(bets[_queryId].walletAddress, bets[_queryId].value);\r\n                availableMoney += bets[_queryId].value * 2;\r\n                lockedMoney -= bets[_queryId].value * 2;\r\n            }\r\n\r\n            //delete bet from mapping\r\n            delete(bets[_queryId]);\r\n        }\r\n    }\r\n\r\n    \r\n\r\n}\r\n",
  "sourcePath": "C:/Users/ankur/Documents/Ankur Aras/Ivan on Tech/Ethereum 201/Coinflip2/contracts/Coinflip.sol",
  "compiler": {
    "name": "solc",
    "version": "0.5.12+commit.7709ece9.Emscripten.clang"
  },
  "schemaVersion": "3.0.16",
  "updatedAt": "2021-01-05T12:00:20.643Z",
  "devdoc": {
    "methods": {
      "__callback(bytes32,string)": {
        "details": "The following `__callback` functions are just placeholders ideally     meant to be defined in child contract when proofs are used.     The function bodies simply silence compiler warnings."
      }
    }
  },
  "userdoc": {
    "methods": {}
  }
}